:0400000007EF00F016
:0A000800018254ED04F071EF05F0E1
:1006000000414C4552543A20536166657479205438
:100610007269676765726564210D0A00456C6576CD
:1006200061746F72204F6E6C696E650D0A00446FC5
:100630006F7273204F70656E696E672E2E2E0044A8
:100640006F6F727320436C6F73696E672E2E2E006E
:100650004D6F76696E6720446F776E2E2E2E0045A3
:100660004D455247454E43592053544F5000446F17
:100670006F7273204F70656E2E0D0A004D6F766994
:100680006E672055702E2E2E0053797374656D2081
:07069000526561647900006E
:100698009DEC04F01350A1EC05F0010E3AEC05F0C6
:1006A800890E066E57EC05F01C0E046EE0EC04F0A3
:1006B80035EF04F0056A000E046E8AEC05F00B6A4B
:1006C800010E0A6E0A500C0FD96EDA6ADE04D8A43D
:1006D80070EF03F072EF03F078EF03F00AC012F046
:1006E800010E116E35EF04F00A4A0B2A0BBE86EF95
:1006F80003F00B5009E1050E0A5CD8A086EF03F061
:1007080088EF03F066EF03F035EF04F01250135C46
:10071800D8B091EF03F093EF03F0B1EF03F0010EBF
:100728003AEC05F07C0E066E57EC05F0010E00EC75
:1007380005F0030E056E200E046E8AEC05F0100E0F
:10074800096E390E086E0E0EE82EFED7082EFCD75D
:10075800092EFAD7132AD6EF03F01350125CD8B03B
:10076800B8EF03F0BAEF03F0D6EF03F0010E3AEC5E
:1007780005F0500E066E57EC05F0020E00EC05F081
:10078800030E056E200E046E8AEC05F0100E096E3D
:10079800390E086E0E0EE82EFED7082EFCD7092E4D
:1007A800FAD713061350A1EC05F012501318D8A469
:1007B800E0EF03F0E2EF03F035EF04F012500C0F16
:1007C800D96EDA6ADF6A020E116E35EF04F0056A37
:1007D800000E046E8AEC05F0010E3AEC05F02E0EC0
:1007E800066E57EC05F06E0E046EE0EC04F0150E84
:1007F800096E4B0E086EBE0EE82EFED7082EFCD7EB
:10080800092EFAD700D0010E3AEC05F03F0E066E1D
:1008180057EC05F00B0E096E260E086E5E0EE82EDC
:10082800FED7082EFCD7092EFAD7010E3AEC05F0B0
:10083800890E066E57EC05F0116A35EF04F0056A6B
:10084800000E046E8AEC05F0010E3AEC05F05F0E1E
:10085800066E57EC05F0010E046EE0EC04F033EF81
:1008680004F01150086E096A0950000AD8B43FEF25
:1008780004F035EF04F00850000AD8B45EEF03F036
:10088800010AD8B48AEF03F0030AD8B4EBEF03F0F7
:10089800010AD8B423EF04F035EF04F007EF00F0B5
:1008A8000600F2A25AEF04F05CEF04F05FEF04F0E8
:1008B800030E116EF292F2A064EF04F066EF04F0FA
:1008C8009BEF04F08150340E026EF20EE82EFED734
:1008D800022EFCD781CF03F003B875EF04F077EF51
:1008E80004F07BEF04F0010E0D6E9AEF04F003BAEA
:1008F80080EF04F082EF04F086EF04F0010E0E6E34
:100908009AEF04F003BC8BEF04F08DEF04F091EF45
:1009180004F0010E0F6E9AEF04F003BE96EF04F098
:1009280098EF04F09AEF04F0010E106EF290019225
:1009380011000F0EC16E070EB46E9368926A946A26
:10094800956AD80EF26EF19CF19E0C0EBD6E040EE7
:10095800CA6ECB68240EAC6E330EAF6E900EAB6EC3
:10096800820E066EDE0EE82EFED7062EFCD7200E6F
:100978008C6E8C948C86060E066E300EE82EFED792
:10098800062EFCD700D08C960D0E066EFC0EE82EB7
:10099800FED7062EFCD7280E3AEC05F00C0E3AECE2
:1009A80005F0010E3AEC05F00D0E066EFC0EE82E71
:1009B800FED7062EFCD71200F1EF04F09EA8E7EF51
:1009C80004F0E9EF04F0E2EF04F004C0F6FF060ECD
:1009D800F76E0800F5CFADFF042A04C0F6FF060E37
:1009E800F76E0800F5500009D8A4FDEF04F0FFEFFA
:1009F80004F0E2EF04F01200046E0404D8A407EF38
:100A080005F009EF05F00DEF05F08B868B981CEFCC
:100A180005F0020E0418D8A414EF05F016EF05F03F
:100A28001AEF05F08B968B881CEF05F08B968B9848
:100A38001200056E0550F00B8C6E8C848C86030EAC
:100A4800046E980EE82EFED7042EFCD78C96053837
:100A5800F00BF00B8C6E8C848C86030E046E980E53
:100A6800E82EFED7042EFCD78C961200056E055092
:100A7800F00B8C6E8C948C86030E046E980EE82E08
:100A8800FED7042EFCD78C960538F00BF00B8C6E35
:100A98008C948C86030E046E980EE82EFED7042ED6
:100AA800FCD78C96120062EF05F006C0F6FF060E22
:100AB800F76E0800F5501DEC05F0062A06C0F6FF93
:100AC800060EF76E0800F5500009D8A46EEF05F081
:100AD80070EF05F059EF05F01200560EF66E0B0E8A
:100AE800F76E000EF86E0900F5CF12F00900F5CF89
:100AF80013F0116A106A0F6A0E6A0D6A0C6A019087
:100B08000192000EF86E00014CEF03F004C006F0ED
:100B180005C007F0D89007320632D890073206325F
:100B28000650BE6E04C006F0030E0616063ABD5007
:100B38000618CF0B0618BD6E1200056E05C004F02E
:100B48000F0E04168950F00B0410896E1200010173
:020000040030CA
:08000000FF021F1EFF8181FFBA
:00000001FF
