:0400000007EF00F016
:0A000800018280ED06F056EF07F0CC
:1006000000414C4552543A20536166657479205438
:100610007269676765726564210D0A0041727269CB
:100620007665642E20446F6F7273204F70656E691B
:100630006E672E0D0A00456C657661746F722053EB
:10064000797374656D2052656164790D0A004D6F90
:1006500076696E6720746F20466C6F6F723A200067
:1006600021212120454D455247454E435920212106
:10067000210053797374656D20526561647900447B
:100680006F6F7273204F70656E00466C6F6F723AB9
:050690002025640000BC
:10069600BBEC06F0010E1EEC07F0720E036E035063
:1006A600D8A4060E046E7BEC05F0360E036EE0EC65
:1006B60006F023EF04F03F6A010E3E6E3E50600FD7
:1006C600D96EDA6ADF50D8B46BEF03F06DEF03F042
:1006D60077EF03F03EC06BF0010E6A6E4E0E036EAE
:1006E600E0EC06F023EF04F03E4A3F2A3FBE85EFDA
:1006F60003F03F5009E1050E3E5CD8A085EF03F0FC
:1007060087EF03F061EF03F023EF04F0030E046EAE
:10071600200E036E87EC07F06B506C5CD8B096EF3A
:1007260003F098EF03F0A9EF03F082868298150E86
:100736002D6E4B0E2C6EBE0EE82EFED72C2EFCD741
:100746002D2EFAD700D06C2AC1EF03F06C506B5CEB
:10075600D8B0B0EF03F0B2EF03F0C1EF03F082962A
:100766008288150E2D6E4B0E2C6EBE0EE82EFED711
:100776002C2EFCD72D2EFAD700D06C066CC02CF090
:100786000F0E2C168950F00B2C10896E2E0E1C6E37
:100796008A0E1D6E6CC01EF01F6A6FEC07F0010E0C
:1007A6001EEC07F02E0E036E046A7BEC05F06B5010
:1007B6006C18D8A4E1EF03F0E3EF03F023EF04F0A5
:1007C6006B50600FD96EDA6ADF6A020E6A6E23EF2B
:1007D60004F0046A000E036E87EC07F0010E1EECAF
:1007E60007F07F0E036E0350D8A4060E046E7BEC52
:1007F60005F01C0E036EE0EC06F01F0E2D6E710E5A
:100806002C6E1E0EE82EFED72C2EFCD72D2EFAD7D8
:1008160000D06A6A23EF04F0046A000E036E87ECC8
:1008260007F0010E1EEC07F0600E036E0350D8A40D
:10083600060E046E7BEC05F0010E036EE0EC06F08E
:100846006A502C6E2D6A2D50000AD8B42DEF04F094
:1008560023EF04F02C50000AD8B45EEF03F0010A2F
:10086600D8B489EF03F0030AD8B4ECEF03F0010A19
:10087600D8B40FEF04F023EF04F007EF00F00E50AA
:10088600D96EDA6ADFCFF6FF060EF76E0800F5506E
:10089600250AD8A451EF04F053EF04F009EF05F050
:1008A6000E50D96EDA6ADF2A666A000E656E65C07A
:1008B60069F0676868680E50D96EDA6ADF50126EA2
:1008C60012C0F6FF060EF76E0800F550640AD8B49B
:1008D6006FEF04F071EF04F07FEF04F012C0F6FF43
:1008E600060EF76E0800F550690AD8A47DEF04F0ED
:1008F6007FEF04F003EF05F00F50D96EDA6A020EAF
:10090600DF26DF5CD96EDA6ADECF13F0DECF14F0B5
:100916000E50D96EDA6A1228DF6E200E176E14BEDC
:1009260097EF04F09AEF04F0010E9BEF04F0000E2F
:10093600116E17061750400FD96EDA6A13C003F00E
:1009460014C004F0066A0A0E056ED4EC05F003C066
:1009560009F004C00AF03CEC07F00950300FDF6ED6
:1009660013C003F014C004F0066A0A0E056E1BECF1
:1009760005F003C013F004C014F013501410D8B4DB
:10098600C7EF04F0C9EF04F0D1EF04F01750D8A474
:10099600CFEF04F0D1EF04F09CEF04F01750D8B479
:1009A600D7EF04F0D9EF04F0F8EF04F01150D8B403
:1009B600DFEF04F0E1EF04F0F8EF04F0170617504C
:1009C600400FD96EDA6A2D0EDF6EF8EF04F017507D
:1009D600400FD96EDA6ADF50106E1050036E046A4B
:1009E6000DC005F02BEC06F0172A200E1718D8A418
:1009F600FFEF04F001EF05F0EAEF04F01AEF05F05F
:100A06000E50D96EDA6ADF2A1AEF05F00E50D96E4B
:100A1600DA6ADFCFF6FF060EF76E0800F550036EB2
:100A2600046A0DC005F02BEC06F003EF05F012008A
:100A3600086A06BE23EF05F021EF05F029EF05F061
:100A4600056C061ED8B0062A010E086E04BE30EFED
:100A560005F02EEF05F036EF05F0036C041ED8B056
:100A6600042A010E081A0A6A000E096E05500610BD
:100A7600D8B440EF05F042EF05F06AEF05F0010E3D
:100A8600076E4AEF05F0D89005360636072A06AEF9
:100A96004FEF05F051EF05F046EF05F0D890093617
:100AA6000A360550035C06500458D8A05DEF05F0E1
:100AB6005FEF05F064EF05F00550035E0650045A3B
:100AC6000980D89006320532072E51EF05F00850FE
:100AD600D8B470EF05F072EF05F076EF05F0096C0B
:100AE6000A1ED8B00A2A09C003F00AC004F0120090
:100AF600BBEF05F003C0F6FF04C0F7FFF86A050E6A
:100B0600F76403D00800F55005D0F6CFE1FFF7CF24
:100B1600E2FFE750F00B836E84808482060E056E3A
:100B2600300EE82EFED7052EFCD700D0849203C0E7
:100B3600F6FF04C0F7FFF86A050EF76403D0080055
:100B4600F55005D0F6CFE1FFF7CFE2FFE750056E8F
:100B56000538F00BF00B836E8482060E056E300EA0
:100B6600E82EFED7052EFCD700D08492034A042A2D
:100B760003C0F6FF04C0F7FFF86A050EF76403D05A
:100B86000800F55005D0F6CFE1FFF7CFE2FFE750BA
:100B96000009D8A4D1EF05F0D3EF05F07DEF05F0FD
:100BA6001200086A04BEDCEF05F0DAEF05F0E2EFAA
:100BB60005F0036C041ED8B0042A010E086E06BEAA
:100BC600E9EF05F0E7EF05F0EDEF05F0056C061E21
:100BD600D8B0062A05500610D8B4F4EF05F0F6EFA3
:100BE60005F01AEF06F0010E076EFEEF05F0D8903D
:100BF60005360636072A06AE03EF06F005EF06F0C1
:100C0600FAEF05F00550035C06500458D8A00EEF25
:100C160006F010EF06F014EF06F00550035E0650DE
:100C2600045AD89006320532072E05EF06F0085012
:100C3600D8B420EF06F022EF06F026EF06F0036C9C
:100C4600041ED8B0042A03C003F004C004F0120046
:100C56000550D8B431EF06F033EF06F03BEF06F05F
:100C66000550D8A439EF06F03BEF06F040EF06F04A
:100C760003509FEC07F07FEF06F00550D96EDA6A55
:100C8600090ED926DE50DE10D8B44CEF06F04EEF32
:100C960006F067EF06F00550D96EDA6A090ED92616
:100CA6000550E16EE26A020EE126DE50E65CE65091
:100CB600800A0A6EDE50800A0A58D8B065EF06F040
:100CC60067EF06F07FEF06F00550D96EDA6A020E7E
:100CD600D926DF50066E0550D96EDA6ADF50062433
:100CE600D96EDA6A03C0DFFF0550D96EDA6A020EE2
:100CF600D926DE2A000EDD2212000600F2A286EFB9
:100D060006F088EF06F08BEF06F0030E6A6EF2929D
:100D1600F2A090EF06F092EF06F0B9EF06F081CF61
:100D260002F002B899EF06F09BEF06F09DEF06F091
:100D3600010E616E02BAA2EF06F0A4EF06F0A6EF6E
:100D460006F0010E626E02BCABEF06F0ADEF06F0E8
:100D5600AFEF06F0010E636E02BEB4EF06F0B6EF1B
:100D660006F0B8EF06F0010E646EF29001921100E3
:100D76000F0EC16E9368926A946A956AD80EF26EE7
:100D8600F19C0C0EBD6E040ECA6ECB68240EAC6EC2
:100D9600330EAF6E900EAB6E340E056EF20EE82E6D
:100DA600FED7052EFCD7020E1EEC07F0280E1EEC11
:100DB60007F00C0E1EEC07F01200F1EF06F09EA8ED
:100DC600E7EF06F0E9EF06F0E2EF06F003C0F6FF04
:100DD600060EF76E0800F5CFADFF032A03C0F6FF37
:100DE600060EF76E0800F5500009D8A4FDEF06F0D0
:100DF600FFEF06F0E2EF06F0120019C01BF00CEF51
:100E060007F018C00DF01B0E0E6E1AC00FF042EC64
:100E160004F01BC0F6FF060EF76E0800F550000939
:100E2600D8A418EF07F01AEF07F004EF07F0196AD5
:100E3600000E186E1200046E0450F00B836E849040
:100E46008482060E036E300EE82EFED7032EFCD7E4
:100E560000D084920438F00BF00B836E8482060E69
:100E6600036E300EE82EFED7032EFCD700D08492F8
:100E760012000ABE41EF07F043EF07F049EF07F013
:100E860009C009F00AC00AF055EF07F009C00BF0D7
:100E96000AC00CF00B1E0C1E0B4A0C2A0BC009F0E4
:100EA6000CC00AF012003C0EF66E0F0EF76E000E26
:100EB600F86E0900F5CF6BF00900F5CF6CF000EE87
:100EC60040F02B0EEE6AE806FDE101900192000E5D
:100ED600F86E00014BEF03F01E0E206E1CC021F0D1
:100EE600246A000E236E2B6A000E2A6E210E186EDF
:100EF6001DC019F0200E1A6E00EC07F01C502324BA
:100F0600D96EDA6ADF6A120003C005F004C006F083
:100F1600D89006320532D890063205320550BE6E9C
:100F260003C005F0030E0516053ABD500518CF0B94
:0A0F36000518BD6E12000101120043
:020000040030CA
:08000000FF021F1EFF8181FFBA
:00000001FF
